{
  "_format": "hh-sol-artifact-1",
  "contractName": "SwapToken",
  "sourceName": "contracts/SwapToken.sol",
  "abi": [
    {
      "inputs": [
        {
          "internalType": "address",
          "name": "_celo",
          "type": "address"
        },
        {
          "internalType": "address",
          "name": "_base",
          "type": "address"
        },
        {
          "internalType": "uint256",
          "name": "_tokenCeloSwapRate",
          "type": "uint256"
        },
        {
          "internalType": "uint256",
          "name": "_tokenBaseSwapRate",
          "type": "uint256"
        }
      ],
      "stateMutability": "nonpayable",
      "type": "constructor"
    },
    {
      "inputs": [],
      "name": "base",
      "outputs": [
        {
          "internalType": "contract IERC20",
          "name": "",
          "type": "address"
        }
      ],
      "stateMutability": "view",
      "type": "function"
    },
    {
      "inputs": [],
      "name": "celo",
      "outputs": [
        {
          "internalType": "contract IERC20",
          "name": "",
          "type": "address"
        }
      ],
      "stateMutability": "view",
      "type": "function"
    },
    {
      "inputs": [
        {
          "internalType": "uint256",
          "name": "amountB",
          "type": "uint256"
        }
      ],
      "name": "swapTokenBaseToTokenCelo",
      "outputs": [],
      "stateMutability": "nonpayable",
      "type": "function"
    },
    {
      "inputs": [
        {
          "internalType": "uint256",
          "name": "amountA",
          "type": "uint256"
        }
      ],
      "name": "swapTokenCeloToTokenBase",
      "outputs": [],
      "stateMutability": "nonpayable",
      "type": "function"
    },
    {
      "inputs": [],
      "name": "tokenBaseSwapRate",
      "outputs": [
        {
          "internalType": "uint256",
          "name": "",
          "type": "uint256"
        }
      ],
      "stateMutability": "view",
      "type": "function"
    },
    {
      "inputs": [],
      "name": "tokenCeloSwapRate",
      "outputs": [
        {
          "internalType": "uint256",
          "name": "",
          "type": "uint256"
        }
      ],
      "stateMutability": "view",
      "type": "function"
    }
  ],
  "bytecode": "0x608060405234801561001057600080fd5b50604051610f29380380610f2983398181016040528101906100329190610163565b836000806101000a81548173ffffffffffffffffffffffffffffffffffffffff021916908373ffffffffffffffffffffffffffffffffffffffff16021790555082600160006101000a81548173ffffffffffffffffffffffffffffffffffffffff021916908373ffffffffffffffffffffffffffffffffffffffff1602179055508160028190555080600381905550505050506101ca565b600080fd5b600073ffffffffffffffffffffffffffffffffffffffff82169050919050565b60006100fa826100cf565b9050919050565b61010a816100ef565b811461011557600080fd5b50565b60008151905061012781610101565b92915050565b6000819050919050565b6101408161012d565b811461014b57600080fd5b50565b60008151905061015d81610137565b92915050565b6000806000806080858703121561017d5761017c6100ca565b5b600061018b87828801610118565b945050602061019c87828801610118565b93505060406101ad8782880161014e565b92505060606101be8782880161014e565b91505092959194509250565b610d50806101d96000396000f3fe608060405234801561001057600080fd5b50600436106100625760003560e01c8063051ed8ef1461006757806311416250146100855780635001f3b5146100a157806363c3ccd8146100bf578063cec0dadd146100db578063dad82dc7146100f9575b600080fd5b61006f610117565b60405161007c919061082c565b60405180910390f35b61009f600480360381019061009a9190610882565b61013b565b005b6100a961045a565b6040516100b6919061082c565b60405180910390f35b6100d960048036038101906100d49190610882565b610480565b005b6100e36107a1565b6040516100f091906108be565b60405180910390f35b6101016107a7565b60405161010e91906108be565b60405180910390f35b60008054906101000a900473ffffffffffffffffffffffffffffffffffffffff1681565b600073ffffffffffffffffffffffffffffffffffffffff163373ffffffffffffffffffffffffffffffffffffffff16036101aa576040517f08c379a00000000000000000000000000000000000000000000000000000000081526004016101a190610936565b60405180910390fd5b6000600254826101ba9190610985565b90508160008054906101000a900473ffffffffffffffffffffffffffffffffffffffff1673ffffffffffffffffffffffffffffffffffffffff166370a08231336040518263ffffffff1660e01b815260040161021691906109e8565b602060405180830381865afa158015610233573d6000803e3d6000fd5b505050506040513d601f19601f820116820180604052508101906102579190610a18565b1015610298576040517f08c379a000000000000000000000000000000000000000000000000000000000815260040161028f90610a91565b60405180910390fd5b60008054906101000a900473ffffffffffffffffffffffffffffffffffffffff1673ffffffffffffffffffffffffffffffffffffffff166323b872dd3330856040518463ffffffff1660e01b81526004016102f593929190610ab1565b6020604051808303816000875af1158015610314573d6000803e3d6000fd5b505050506040513d601f19601f820116820180604052508101906103389190610b20565b610377576040517f08c379a000000000000000000000000000000000000000000000000000000000815260040161036e90610b99565b60405180910390fd5b600160009054906101000a900473ffffffffffffffffffffffffffffffffffffffff1673ffffffffffffffffffffffffffffffffffffffff1663a9059cbb33836040518363ffffffff1660e01b81526004016103d4929190610bb9565b6020604051808303816000875af11580156103f3573d6000803e3d6000fd5b505050506040513d601f19601f820116820180604052508101906104179190610b20565b610456576040517f08c379a000000000000000000000000000000000000000000000000000000000815260040161044d90610c2e565b60405180910390fd5b5050565b600160009054906101000a900473ffffffffffffffffffffffffffffffffffffffff1681565b600073ffffffffffffffffffffffffffffffffffffffff163373ffffffffffffffffffffffffffffffffffffffff16036104ef576040517f08c379a00000000000000000000000000000000000000000000000000000000081526004016104e690610936565b60405180910390fd5b6000600354826104ff9190610c7d565b905081600160009054906101000a900473ffffffffffffffffffffffffffffffffffffffff1673ffffffffffffffffffffffffffffffffffffffff166370a08231306040518263ffffffff1660e01b815260040161055d91906109e8565b602060405180830381865afa15801561057a573d6000803e3d6000fd5b505050506040513d601f19601f8201168201806040525081019061059e9190610a18565b10156105df576040517f08c379a00000000000000000000000000000000000000000000000000000000081526004016105d690610cfa565b60405180910390fd5b600160009054906101000a900473ffffffffffffffffffffffffffffffffffffffff1673ffffffffffffffffffffffffffffffffffffffff166323b872dd3330856040518463ffffffff1660e01b815260040161063e93929190610ab1565b6020604051808303816000875af115801561065d573d6000803e3d6000fd5b505050506040513d601f19601f820116820180604052508101906106819190610b20565b6106c0576040517f08c379a00000000000000000000000000000000000000000000000000000000081526004016106b790610c2e565b60405180910390fd5b60008054906101000a900473ffffffffffffffffffffffffffffffffffffffff1673ffffffffffffffffffffffffffffffffffffffff1663a9059cbb33836040518363ffffffff1660e01b815260040161071b929190610bb9565b6020604051808303816000875af115801561073a573d6000803e3d6000fd5b505050506040513d601f19601f8201168201806040525081019061075e9190610b20565b61079d576040517f08c379a000000000000000000000000000000000000000000000000000000000815260040161079490610b99565b60405180910390fd5b5050565b60035481565b60025481565b600073ffffffffffffffffffffffffffffffffffffffff82169050919050565b6000819050919050565b60006107f26107ed6107e8846107ad565b6107cd565b6107ad565b9050919050565b6000610804826107d7565b9050919050565b6000610816826107f9565b9050919050565b6108268161080b565b82525050565b6000602082019050610841600083018461081d565b92915050565b600080fd5b6000819050919050565b61085f8161084c565b811461086a57600080fd5b50565b60008135905061087c81610856565b92915050565b60006020828403121561089857610897610847565b5b60006108a68482850161086d565b91505092915050565b6108b88161084c565b82525050565b60006020820190506108d360008301846108af565b92915050565b600082825260208201905092915050565b7f5a65726f2061646472657373206e6f7420616c6c6f7765640000000000000000600082015250565b60006109206018836108d9565b915061092b826108ea565b602082019050919050565b6000602082019050818103600083015261094f81610913565b9050919050565b7f4e487b7100000000000000000000000000000000000000000000000000000000600052601160045260246000fd5b60006109908261084c565b915061099b8361084c565b92508282026109a98161084c565b915082820484148315176109c0576109bf610956565b5b5092915050565b60006109d2826107ad565b9050919050565b6109e2816109c7565b82525050565b60006020820190506109fd60008301846109d9565b92915050565b600081519050610a1281610856565b92915050565b600060208284031215610a2e57610a2d610847565b5b6000610a3c84828501610a03565b91505092915050565b7f4e6f7420656e6f75676820546f6b656e204220696e20636f6e74726163740000600082015250565b6000610a7b601e836108d9565b9150610a8682610a45565b602082019050919050565b60006020820190508181036000830152610aaa81610a6e565b9050919050565b6000606082019050610ac660008301866109d9565b610ad360208301856109d9565b610ae060408301846108af565b949350505050565b60008115159050919050565b610afd81610ae8565b8114610b0857600080fd5b50565b600081519050610b1a81610af4565b92915050565b600060208284031215610b3657610b35610847565b5b6000610b4484828501610b0b565b91505092915050565b7f546f6b656e2041207472616e73666572206661696c6564000000000000000000600082015250565b6000610b836017836108d9565b9150610b8e82610b4d565b602082019050919050565b60006020820190508181036000830152610bb281610b76565b9050919050565b6000604082019050610bce60008301856109d9565b610bdb60208301846108af565b9392505050565b7f546f6b656e2042207472616e73666572206661696c6564000000000000000000600082015250565b6000610c186017836108d9565b9150610c2382610be2565b602082019050919050565b60006020820190508181036000830152610c4781610c0b565b9050919050565b7f4e487b7100000000000000000000000000000000000000000000000000000000600052601260045260246000fd5b6000610c888261084c565b9150610c938361084c565b925082610ca357610ca2610c4e565b5b828204905092915050565b7f4e6f7420656e6f75676820546f6b656e204120696e20636f6e74726163740000600082015250565b6000610ce4601e836108d9565b9150610cef82610cae565b602082019050919050565b60006020820190508181036000830152610d1381610cd7565b905091905056fea26469706673582212203c78d2e1bf38c26c36b0ea9229afecde49d8e26538b96b05025e56c3889f385464736f6c634300081b0033",
  "linkReferences": {},
  "deployedLinkReferences": {}
}